:100000000C94A0030C94E7030C94E7030C94E7030F
:100010000C94E7030C94E7030C94E7030C94E703B8
:100020000C94E7030C94E7030C944C290C941E2ABF
:100030000C945C240C94E7030C94E7030C94E70302
:100040000C94E7030C94E7030C94E7030C94E70388
:100050000C94E7030C94D1240C94E7030C94E7036D
:100060000C94E7030C94E7030C94E7030C94E70368
:100070000C94E7030C94E7030C94E7030C94E70358
:100080000C94E7030C94E7030C94E7030C94E70348
:100090000C94E7030C94E7030C94E7030C94E70338
:1000A0000C94E7030C94E7030C94E703240624065E
:1000B00050065006B806F007F007F007D6066B07A3
:1000C0007C077C07E007F007F007E9079008900835
:1000D000A208A2089908A208A208A20890089008FD
:1000E0009E08A208A2089E088B2AB22AAA2BB22A2E
:1000F000AA2BFE2A212BAA2B782B872B002000105D
:100100000022021200230313002404140025051505
:1001100000260616002707170028081800290919C5
:10012000002A0A1A002B0B1B002C0C1C002D0D1D85
:10013000002E0E1E002F0F1F005030400051314185
:100140000052324200533343005434440055354585
:100150000056364600573747005838480059394945
:10016000005A3A4A005B3B4B005C3C4C005D3D4D05
:10017000005F3F4F00806070008161710082627299
:1001800000836373008464740085657500866676F9
:10019000008767770088687800896979008A6A7AB9
:1001A000008B6B7B008C6C7C008D6D7D008F6F7F76
:1001B00000B090A000B191A100B292A200B393A3AD
:1001C00000B494A400B595A500B696A600B797A76D
:1001D00000B898A800B999A900BA9AAA00BB9BAB2D
:1001E00000BD9DAD00BF9FAF012000100122021293
:1001F0000123031301240414012505150126061605
:10020000012707170128081801290919012A0A1AC4
:10021000012B0B1B012D0D1D012E0E1E0150304018
:10022000015131410152324201563646015A3A4A91
:10023000015B3B4B015C3C4C015D3D4D015E3E4E24
:10024000015F3F4F29000000BE00BD003C003D00A3
:10025000CB5CCA5CAC00AE00AB00A800AA00A90051
:10026000490035001E001F0020002100220023004D
:1002700024002500260027002D002E002A004B0018
:100280002B0014001A000800150017001C001800AD
:100290000C00120013002F00300031004E00E3006C
:1002A00004001600070009000A000B000D000E00F4
:1002B0000F0033003400520028004A00E100000023
:1002C0001D001B000600190005001100100036007B
:1002D000370038005100E5004C00E000E200E30088
:1002E0000000000000002C00000000000000E700FB
:1002F0000151E40050004F00010000003A003B00B3
:100300003C003D003E003F004000410042004300F1
:10031000440045000100010001000100010001004E
:1003200001000100010001000100010001000100C5
:1003300001000100C35CC45CCA5CC65CC85CCC5CE8
:1003400001000100010001000100010001000100A5
:1003500001000100C55CCB5CC75CC95CCD5C0100E1
:1003600001000100010001000100010001004D0039
:100370000100000001000100010001000100010076
:100380000100010001000100010001000100010065
:10039000010001000000000000000100000000005A
:1003A000000001000100010001000100290000001F
:1003B0003A003B003C003D003E003F004000410051
:1003C0004200430044004500490035001E001F0064
:1003D0002000210022002300240025002600270001
:1003E0002D002E002A004B002B0014001A000800DC
:1003F000150017001C0018000C00120013002F003D
:10040000300031004E00E300040016000700090030
:100410000A000B000D000E000F00330034005200E4
:1004200028004A00E10000001D001B000600190022
:100430000500110010003600370038005100E500BB
:100440004C00E000E300E2000000000000002C008F
:10045000000000000000E6000351E40050004F00DF
:1004600001000000BE00BD002B080808CB5CCA5C80
:10047000AC00AE00AB00A800AA00A900010001007A
:100480000100010001000100010001000100010064
:10049000010001000100010001000100C35CC45C17
:1004A000CA5CC65CC85CCC5C0100010001000100B4
:1004B000010001000100010001000100C55CCB5CEE
:1004C000C75CC95CCD5C01000100010001000100B6
:1004D0000100010001004D000100000001000100C9
:1004E0000100010001000100010001000100010004
:1004F00001000100010001000100010000000000F6
:1005000000000100000000000000010001000100E7
:1005100001000100000101010101010101010202CC
:1005200002020202020202030303030303030304A1
:10053000040404040404050505050506060606066C
:10054000070707070708080808090909090A0A0A26
:100550000B0B0B0C0C0C0D0D0D0E0E0E0F0F0F10C8
:100560001011111112121313141415151616171752
:10057000181819191A1A1B1B1C1D1D1E1E1F2020BE
:10058000212222232424252626272829292A2B2C08
:100590002D2D2E2F30313232333435363738393A2B
:1005A0003B3C3D3E3F404142434445464748494A23
:1005B0004C4D4E4F50515354555658595A5B5D5EF1
:1005C0005F616264656668696B6C6D6F707273758C
:1005D00077787A7B7D7E8082838587888A8C8E8FF0
:1005E00091939596989A9C9EA0A2A3A5A7A9ABAD1E
:1005F000AFB1B3B5B7BABCBEC0C2C4C6C9CBCDCF0C
:10060000D1D4D6D8DBDDDFE2E4E7E9EBEEF0F3F5B9
:10061000F8FAFDFF18034B006500790063006800DD
:1006200072006F006E0020005100310000001203C4
:100630004B00650079006300680072006F006E0077
:1006400000000403090409023B00020100A0FA09AA
:1006500004000001030101000921110100012240F1
:10066000000705810308000A0904010001030000D6
:1006700000092111010001226D00070582032000FD
:100680000A120100020000000834340001000101D8
:1006900002000105010980A101850319012AB700A3
:1006A000150126B700950175108100C0050C0901E0
:1006B000A101850419012AA002150126A0029501B5
:1006C00075108100C005010906A1018506050719FD
:1006D000E029E71500250195087501810205071934
:1006E0000029EF1500250195F07501810205081913
:1006F000012905950575019102950175039101C0C8
:1007000005010906A101050719E029E715002501E2
:100710009508750181029501750881010507190089
:1007200029FF150026FF00950675088100050819A8
:10073000012905950575019102950175039101C087
:1007400011241FBECFEFDAE0DEBFCDBF04B603FE3B
:1007500027C08091F7059091F805A091F905B09117
:10076000FA058730904BA740B04BD1F41092F705B3
:100770001092F8051092F9051092FA0514BE84B78C
:10078000877F84BF0FB6F894A89580916000886138
:1007900080936000109260000FBEE0E0F8E30995DE
:1007A00013E0A0E0B1E0EAE6FAE502C005900D92A0
:1007B000A230B107D9F725E0A2E0B3E001C01D9255
:1007C000A73FB207E1F70E94EB140C94332D0C9471
:1007D00000001F93CF93DF93182FD62F0E94C620BF
:1007E000C82F882379F011110DC0D11105C061E027
:1007F00070E080E090E004C064E070E080E090E0B1
:100800000E94DF088C2FDF91CF911F91089581E026
:10081000089581E008950C94090408950C940D0442
:100820001F93CF93DF9300D000D01F92CDB7DEB7D8
:1008300049835A836B833091040389819A813111F2
:1008400014C0662359F0222349F00E94340A182F5D
:10085000682F89819A810E94DD0903C00E94080ADD
:10086000182F69817A81812F04C00E94340A69811E
:100870007A810F900F900F900F900F90DF91CF9192
:100880001F910C94FE10FC01262F40815181628142
:10089000738184810C94100481E00895CF93DF93D9
:1008A000EC0160E00E944304BE01DF91CF910C9403
:1008B0000E040E9424130E94EB040E94951B0C94CA
:1008C000681380E00E94D1200C9464130E942D1BB9
:1008D00080E00E94EC0481E00C94B31B08950C941A
:1008E0006E040E947E080E946F042FEF84E39CE058
:1008F000215080409040E1F700C000000C94F724A4
:100900000F931F93CF93DF938C0161E00E94430408
:10091000EC01B8010E940B04882309F444C0B8011B
:10092000CE010E94B0218823F1F1B801CE010E94CE
:10093000941F8823C1F1B801CE010E940C218823A5
:1009400091F1B801CE010E94F81E882361F1F801EF
:100950008281882309F1CB358DE5D807C1F050F4A9
:10096000C115FCE5DF0781F0CF3DDC45A9F40E940D
:10097000E80F19C0CC35EDE5DE0761F0CD35DD457A
:1009800059F40E942B0F08C00E9471040CC00E94F1
:10099000340F02C00E94370FC801DF91CF911F9121
:1009A0000F910C94070480E0DF91CF911F910F917C
:1009B00008950C946E040E94EA220E94EC0480E0E8
:1009C0000E94B31B0C94D90408950C94E40481E0B4
:1009D00008950C94E7040895CF93C82F0E94E5046E
:1009E0008C2F0E94E904CF910895CF93DF93CDB768
:1009F000DEB72B970FB6F894DEBF0FBECDBF4F8387
:100A0000588769877A878B8761110E94770E9E01CC
:100A10002F5F3F4F86E0F90111928A95E9F785E053
:100A2000FE013796D90101900D928A95E1F78981EF
:100A30009A814C815D81452B31F09F3F31F491E0EB
:100A40008F3F19F403C091E001C090E090FF09C00E
:100A500049815A816B817C818D819E810E94980D94
:100A600005C0C9010E944C048111F2CF2B960FB62C
:100A7000F894DEBF0FBECDBFDF91CF910895FC018A
:100A8000808191810E94760A0895CF93882309F48A
:100A900048C0C82F8CEF8C0F813AD0F46C2F809116
:100AA0005602909157020E945223882349F06C2FDE
:100AB00080915602909157020E94DD230E94A90E58
:100AC0006C2F80915602909157020E94D2230CC045
:100AD00080E28C0F883058F4C77081E001C0880F25
:100AE000CA95EAF70E945A0ECF910C94A90EEBE535
:100AF000EC0FE33040F4F0E0E855FD4F808190E0EA
:100B0000CF910C941023C85AC73158F4EC2FF0E061
:100B1000EE0FFF1FE658FD4F80819181CF910C941D
:100B20002623CF910895882349F1682F8CEF860FF3
:100B3000813A38F480915602909157020E94DD2349
:100B40000CC080E2860F883050F4677081E001C0ED
:100B5000880F6A95EAF70E94600E0C94A90E8BE547
:100B6000860F833020F480E090E00C941023685AC4
:100B7000673120F480E090E00C94262308951F93C1
:100B8000CF93DF93182FEB010E944505209741F08A
:100B90008FE99FE00197F1F700C000002197F6CFA1
:100BA000812FDF91CF911F910C949305893319F018
:100BB00060E070E002C060E570E00C94BF0588233F
:100BC00021F00E945A0E0C94A90E0895882321F05A
:100BD0000E94600E0C94A90E0895CF92DF92EF92BE
:100BE000FF920F931F93CF93DF937C01162FC72F94
:100BF000FC01D281058102950F700E94500E88235E
:100C0000B9F0DD23A9F08C2F807F803421F080E2C1
:100C1000810F883068F080912F0482FD09C082E046
:100C20000E94F90E0E94500E91E0D82ED92601C0E4
:100C3000D12CCC2EC2948FE0C8228C2D90E0FC01E8
:100C4000EA5AFF4F0C94282C8C2F807FCF7088237A
:100C500011F0C295C07FDD2399F0CC2309F49BC12C
:100C600080E2810F883010F0111104C08C2F0E9497
:100C70005A0E03C08C2F0E946A0E0E94A90E8BC1CF
:100C8000812F0E949305CC2309F4AAC180E2810F31
:100C9000883038F1112329F18C2F0E94700E24C066
:100CA0008C2F807FCF70803211F0C295C07F1123CE
:100CB00019F01130A1F13DC080912F0482FF17C0BF
:100CC000DD2349F0CC2329F08C2F0E945A0E0E947C
:100CD000A90E80E061C180E00E949305CC2309F455
:100CE0007FC18C2F0E94600E0E94A90E79C1DD2366
:100CF00071F0002341F0013031F40E948A0E8C2BF8
:100D00000E94920E6DC10E948A0E8C2B1DC0002382
:100D100019F0013009F464C10E949F0E25C0DD2343
:100D200021F0063008F05CC10EC0053008F058C153
:100D30001BC0DD2361F0002331F0F701858180FFC6
:100D40002AC18F7085838C2F0E94DF0549C1002343
:100D500059F0193309F030C1FFEF27EE83E0F1506D
:100D600020408040E1F726C18C2F0E94E60538C163
:100D70008C2F86958695837019F0813061F030C193
:100D8000DD2321F0812F9C2F937002C080E090E042
:100D90000E9410232DC1DD2321F0812F9C2F937001
:100DA00002C080E090E00E94262322C18C2F837035
:100DB00009F045C0D11118C1412F429546954770A1
:100DC000440F440F612F6F70862F90E0A0E0B0E0D9
:100DD000042E04C0880F991FAA1FBB1F0A94D2F7C4
:100DE00014FF10C00FE010E020E030E004C0000F5E
:100DF000111F221F331F4A95D2F700951095209599
:100E0000309503C000E010E09801C695C695C37008
:100E1000BC01CD01602B712B822B932BC23049F08A
:100E200058F4C13019F00E94F308DEC00E94E108B6
:100E3000DBC00E940509D8C00E94DF08D5C0DD23B1
:100E400019F08C2F817001C08695882309F4CCC0DD
:100E5000412F429546954770440F440F612F6F70A4
:100E6000862F90E0A0E0B0E0042E04C0880F991F08
:100E7000AA1FBB1F0A94D2F714FF10C00FE010E0A6
:100E800020E030E004C0000F111F221F331F4A95DD
:100E9000D2F7009510952095309503C000E010E042
:100EA0009801C695C695C370BC01CD01602B712B0E
:100EB000822B932BC23049F058F4C13019F00E94B4
:100EC000B80992C00E94A6098FC00E94CA098CC0AE
:100ED0000E94190989C0CF70DD2339F08C2F0E9440
:100EE0003F09812F0E94DF057FC0812F0E94E60508
:100EF0008C2F0E94600978C0123F21F128F4103F26
:100F000041F0113FC1F043C0133F19F1143F79F094
:100F10003EC0DD2341F0053008F062C08C2F8F7198
:100F20000E9485095DC0063008F05AC0F7CF809155
:100F30002F0482FF18C0DD2339F08C2F8F710E949F
:100F40003F094EC0DD23C9F38C2F8F710E946009C9
:100F500047C0DD2329F08C2F8F710E942A0940C0E1
:100F60000E9425093DC0DD2349F0CF718C2F0E94DE
:100F70003F0963E08C2F0E94DE0E32C081E00E94A8
:100F8000F90E023068F182E00E94F90E29C0DD23DB
:100F900031F0002391F2812F0E94450521C00023EA
:100FA00099F2193349F49FEFE7EEF3E09150E040F6
:100FB000F040E1F700C00000812F0E94930510C0AF
:100FC0004C2F4F70612FC7010E94FA100E94A40A93
:100FD0000FC04C2F4F70612FC7010E94FD1008C039
:100FE00088EF8C0D843020F40E94EA220E94EC04E9
:100FF000DD20C9F00E944C0E80FD15C0F701128261
:101000000E94460E0E943F09C7010E9434080E94B8
:10101000460EDF91CF911F910F91FF90EF90DF90DF
:10102000CF900C946009DF91CF911F910F91FF90A9
:10103000EF90DF90CF9008950F931F93CF93DF939E
:10104000EC01688179818A810E94810A8C010E9469
:10105000DC090E94CD08B801CE010E94ED05DF91A8
:10106000CF911F910F910895CF93DF93EC01988159
:1010700089812B813C81232B31F08F3F31F481E03A
:101080009F3F19F403C081E001C080E080FD1DC0D6
:10109000CE010E948004811110C00E94500E88234E
:1010A000A1F08A81882389F080912F0482FD0DC0F0
:1010B00082E0DF91CF910C94F90ECE010E941C08C2
:1010C000CE01DF91CF910C944E04DF91CF91089522
:1010D00080E090E00E94102380E090E00E942623B0
:1010E0000E94770E0E94870E0C94A90E80915602E2
:1010F000909157020E94E8230C9468080E94670EA2
:101100000C947608E92FE295EF704E2F50E0FA012B
:101110003297EE30F105B0F4EA59FF4F0C94282CC9
:10112000803F91F018F4883E68F40EC0843F51F47B
:101130000BC0883E48F0813F29F406C093FB882706
:1011400080F9089580E0089581E00895FC01808190
:1011500091810E94760A0E9482080895CF93DF93BE
:1011600000D000D01F92CDB7DEB70F900F900F9038
:101170000F900F90DF91CF910895CF93DF9300D020
:1011800000D000D0CDB7DEB726960FB6F894DEBFFC
:101190000FBECDBFDF91CF910895089508950C94AF
:1011A000CE080C94CF080E94D10860934503709339
:1011B000460380934703909348030C9468080C946B
:1011C000D3080F931F93009145031091460320917C
:1011D000470330914803602B712B822B932B1F9177
:1011E0000F910C94D3080F931F9300914503109116
:1011F00046032091470330914803602371238223E3
:1012000093231F910F910C94D3080F931F93009178
:10121000450310914603209147033091480360270E
:101220007127822793271F910F910C94D3080C9458
:10123000CE080E9417096093410370934203809384
:101240004303909344030C94680860E070E0CB0182
:101250000C9419090F931F9341E050E060E070E097
:101260008A019B0104C0000F111F221F331F8A95A2
:10127000D2F7C901B8011F910F910C9419090F936E
:101280001F9341E050E060E070E004C0440F551F40
:10129000661F771F8A95D2F7809141039091420390
:1012A000A0914303B09144038A019B01082B192BA1
:1012B0002A2B3B2BC901B8011F910F910C941909DE
:1012C0000F931F9341E050E060E070E004C0440FD2
:1012D000551F661F771F8A95D2F7409550956095E8
:1012E00070958091410390914203A0914303B09186
:1012F00044038A019B01082319232A233B23C901A4
:10130000B8011F910F910C9419090F931F9341E09D
:1013100050E060E070E004C0440F551F661F771F67
:101320008A95D2F78091410390914203A0914303A3
:10133000B09144038A019B01082719272A273B27DC
:10134000C901B8011F910F910C9419090F931F93B4
:1013500000914103109142032091430330914403D3
:10136000602B712B822B932B1F910F910C941909D9
:101370000F931F9300914103109142032091430367
:101380003091440360237123822393231F910F9193
:101390000C9419090F931F9300914103109142037C
:1013A00020914303309144036027712782279327BC
:1013B0001F910F910C94190908952FE0929F800DB1
:1013C0001124E82FE695E695E695877051E001C077
:1013D000550F8A95EAF785E0E89FF0011124EB5F4D
:1013E000FC4F20E030E070E04081CB01022E02C0D3
:1013F000969587950A94E2F78170819584278523D5
:10140000842781932F5F3F4F2530310569F7089579
:101410002FE0929F800D1124682F66956695669542
:10142000982F977085E0689FB001112440E050E04C
:1014300080E0FB01E40FF51FEB5FFC4F208130E003
:10144000092E02C0369527950A94E2F721703327BA
:10145000042E01C0220F0A94EAF7822B4F5F5F4FE0
:101460004530510531F70895BF92CF92DF92EF9248
:10147000FF920F931F93CF93DF938C01C090410392
:10148000D0904203E0904303F090440380914503E1
:1014900090914603A0914703B0914803C82AD92AE6
:1014A000EA2AFB2ACFE1D0E0D701C6010C2E04C006
:1014B000B695A795979587950A94D2F780FD04C0B5
:1014C000219790F7B12C07C0BC2EB8018C2F0E9439
:1014D0002E120197A9F38B2DDF91CF911F910F91C0
:1014E000FF90EF90DF90CF90BF900895CF93DF9360
:1014F000EC010E94340ABE010E942E12DF91CF91AE
:1015000008951F93CF93DF93EB01909104039923E8
:1015100021F0CB010E94760A13C0882349F0CB0149
:101520000E94340A182F682FCE010E94DD0904C0E2
:10153000CB010E94080A182FBE01812F0E942E1293
:10154000DF91CF911F910895EF92FF920F931F9318
:10155000CF93DF938C01892B09F46CC0F12CEE241E
:10156000E394E8012196F8018491843740F48430B3
:1015700008F051C0813081F0823019F15BC08537AD
:1015800009F444C0A8F19CE7980F903708F052C0C6
:101590008F770E94930541C00E5F1F4FFE0184911B
:1015A00090E2980F983050F48770FE2D01C0FF0F25
:1015B0008A95EAF78F2F0E947A0E14C00E94450583
:1015C0002DC00E5F1F4FFE01849190E2980F98305E
:1015D00060F48770FE2D01C0FF0F8A95EAF78F2F08
:1015E0000E94800E0E94A90E19C00E94930516C089
:1015F0000E5F1F4FFE01C491CC2381F08FE99FE065
:101600000197F1F700C00000C150F6CF0E5F1F4FE9
:10161000FE01F49003C00E9445058E018F2D8823A2
:1016200009F49FCFEFE9FFE03197F1F700C0000028
:101630008150F5CFDF91CF911F910F91FF90EF90E7
:1016400008951F93CF93DF93C091490316E08091D3
:101650004A03C81799F0D0E01C9FF0011D9FF00DC0
:101660001124E55BFC4F408151816281738184814B
:1016700095810E94BD082196C770E9CFDF91CF9177
:101680001F91089540917B0350917C0360917D03ED
:1016900070917E0380917F03909180030C94BD082C
:1016A000EF92FF920F931F93CF93DF93809180036C
:1016B00082958F7009F065C080917D03882309F4BD
:1016C00060C080914903F0904A0310917B03009120
:1016D0007C0360917E0370917F0391E01F3F09F0CE
:1016E00090E0C0915402D0915502292F96E0E92E46
:1016F0008F1509F446C06115710521F00F3F21F0E7
:1017000030E003C031E001C0322F90E030FD36C040
:10171000E89EF001E99EF00D1124DF01A55BBC4FAE
:1017200011963C911197301329C03C91311326C07A
:1017300012963C911297311121C013964D915C91F4
:101740001497461B570B4C175D07C0F4809180031C
:101750008F70806180938003E05BFC4F80818F708D
:10176000806180838BE793E00E943408DF91CF9102
:101770001F910F91FF90EF900C94210B01968770B1
:10178000B7CFDF91CF911F910F91FF90EF90089508
:101790009F92AF92BF92CF92DF92EF92FF920F9300
:1017A0001F93CF93DF93CDB7DEB761970FB6F89451
:1017B000DEBF0FBECDBF8C0185E0F801DE011D96B6
:1017C00001900D928A95E1F7D8011296EC909091D4
:1017D0007B03E0917C0320917E0330917F032115F0
:1017E000310531F0EF3F31F481E09F3F19F403C040
:1017F00081E001C080E0B82FB1709B2E80FD47C111
:10180000D8014C9111965C9111971396AD90BC90B4
:1018100014978BE7C82E83E0D82EF0907D03B50196
:10182000621B730B2091540230915502FF2009F482
:10183000D9C0809180036217730708F095C0282FE4
:10184000207F09F052C05E1313C0491311C0FE2C53
:10185000E1100EC08F708061809380030E94420B64
:10186000C6010E94340880918003F80185834DC130
:10187000AB2831F05F3F31F481E04F3F19F403C0F2
:1018800081E001C080E080FD03C081E08E2502C0C0
:1018900080E090E0F82FF170FF2E80FF1CC0809157
:1018A000490320914A0336E0821709F40BC190E006
:1018B000389FF001399FF00D1124E55BFC4F6181E9
:1018C000561306C06081461303C06281E61203C04E
:1018D00001968770E9CFFE2CEE2009F416C18091A5
:1018E000800381608093800354C05E1306C0491357
:1018F00004C0E11002C0F80199C0C8010E94A60806
:10190000882361F1EE2051F120918003822F82958E
:101910008F7090E0029774F080917B0390917C032C
:1019200098878F831986BB86AA862C87CE01079657
:101930000E94340886E0F801ABE7B3E001900D9215
:101940008A95E1F70E94500B0E94420B0AC05E1775
:1019500011F1C8010E94A60881112CC0C8010E9483
:101960003408FF24F394D1C0282F207F81F77A2DEB
:10197000B98AA88A6E2D89890E94AE088BE793E008
:101980000E94340886E0D6011D928A95E9F70E94EC
:10199000420BF12CBAC04913DCCFE110DACFF801C9
:1019A0008583C8010E94340886E0D6011D928A957D
:1019B000E9F7ABC0EE2091F220918003822F82954F
:1019C0008F7090E002970CF4B5CF80917B039091DB
:1019D0007C039A8389831B82BD82AC822E83CE01D5
:1019E0000196A6CF6217730708F044C0FE2CEE20C4
:1019F00009F4B4CF5E1330C049132EC02091800388
:101A000020FD21C0822F82958F70482F50E0411514
:101A10005105C9F0F80125834F30510541F08F5F22
:101A2000982F9295907F822F8F70892B8583C80184
:101A30000E94340886E0F801ABE7B3E001900D9214
:101A40008A95E1F73CC086E0F801ABE7B3E001908E
:101A50000D928A95E1F759C0C8010E94A60881112C
:101A600069CF80918003816080938003C8010E94C8
:101A700034084BC07A2DB98AA88A6E2D89890E94B4
:101A8000AE0886E0D6011D928A95E9F718C0EE20CF
:101A900009F464CFC8010E94A608F82E882309F42F
:101AA0005DCF86E0F801ABE7B3E001900D928A9537
:101AB000E1F78BE793E00E943F050E94500B0E94E4
:101AC000420B23C04D875E878D859E850E94760AD6
:101AD000292F22952F70223028F49F7039F0811120
:101AE00005C00BC0243028F49F7049F4805E883014
:101AF00020F0C8010E9434089F2CF92C06C0D801A0
:101B000015969C91907F91F7F8CF8F2D61960FB627
:101B1000F894DEBF0FBECDBFDF91CF911F910F9123
:101B2000FF90EF90DF90CF90BF90AF909F9008957F
:101B30001F93CF93DF93CDB7DEB72C970FB6F894F2
:101B4000DEBF0FBECDBF4F83588769877A878B87EB
:101B50009C87CE0107960E94C80B8823D1F09F81F5
:101B600088852A853B85232B31F08F3F31F481E036
:101B70009F3F19F403C081E001C080E080FD47C0B1
:101B80004F81588569857A858B859C850E94BD0823
:101B90003EC086E0FE013796DE01119601900D925F
:101BA0008A95E1F7FF81E8856A857B856115710576
:101BB00031F0EF3F31F481E0FF3F19F403C081E0E1
:101BC00001C080E080FD23C020914A0330E0C901BC
:101BD0000196877099274091490350E08417950733
:101BE000F1F1F983EA837D836C8396E0929FD001C3
:101BF000939FB00D1124A55BBC4FFE01319601905F
:101C00000D929A95E1F780934A030E94210B16E00A
:101C10008091490390914A03891771F1189FC0017F
:101C20001124855B9C4F0E94C80B882329F1E09109
:101C300049031E9FF0011124E55BFC4F4081518157
:101C400062817381848195810E94BD0880914903DE
:101C500090E001968770992780934903D9CF0E941D
:101C60007E0810924A0310924903EBE7F3E086E006
:101C7000DF011D928A95E9F72C960FB6F894DEBF26
:101C80000FBECDBFDF91CF911F9108958091810349
:101C90008595859585950895809181038770089530
:101CA00090918103977081E009F480E0089580911C
:101CB000A50308959091A503892B8093A50308950A
:101CC00080959091A50389238093A5030895109290
:101CD000A50308959091A403892B8093A4030895EC
:101CE00080959091A40389238093A4030895109272
:101CF000A40308959091A303892B8093A3030895CF
:101D000080959091A30389238093A3030895109253
:101D1000A303089580918203089508950C948D0E75
:101D20000C948E0E90912F0492FD08C09091820326
:101D3000981721F0809382030C94900E089580915F
:101D40008203882329F01092820380E00C94900E85
:101D50000895E0915602F09157028091A503808387
:101D6000E0915602F091570290818091A403892B53
:101D70008083E0915602F091570290818091A303F5
:101D8000892B808380918203882381F0E091560221
:101D9000F09157029081892B808380915602909117
:101DA00057020E943C2381110E949F0E809156028F
:101DB000909157020C94F6220C948D0E90912F0462
:101DC00092FD10C098E0899F90011124262B20934A
:101DD00081030E943F0980918103859585958595B2
:101DE0000C94DC0E0C943F091092810380E00C945B
:101DF000DC0E209181038095822380938103982FAC
:101E0000977099F430E0482F082E000C550B2417DA
:101E1000350759F090912F0492FD07C0859585955F
:101E200085950E9460090C94F40E089590912F04FA
:101E300092FB222720F9281769F080FB92F99093F2
:101E40002F0480912E0490912F040E94640F82E051
:101E50000C94F90E089580912F0482FB882780F955
:101E600091E089270C94160F81E00C94160F80E006
:101E70000C94160F6FEF7FEF80E090E00C94EC2C49
:101E800080E090E00E94B82C21E0893E9E4F09F04E
:101E900020E0822F089582E090E00C94B02C83E043
:101EA00090E00C94B02CCF9384E090E00E94B02C92
:101EB000C82F82E290E00E94B02C2C2F30E0A901C4
:101EC000582BCA01CF910895CF93C92F682F84E072
:101ED00090E00E94CE2C6C2F82E290E0CF910C9487
:101EE000CE2CAB01BC018FE090E00C94E02CAB0158
:101EF000BC0183E190E00C94E02C60E070E0CB0149
:101F00000C94770F60E070E0CB010E94710F0C948D
:101F10007D0F69EE7EEF80E090E00E94EC2C60E0A7
:101F200082E090E00E94CE2C60E083E090E00E948E
:101F3000CE2C109245031092460310924703109244
:101F4000480360E084E090E00E94CE2C60E082E2F2
:101F500090E00E94CE2C60E085E090E00E94CE2CC4
:101F600060E086E090E00E94CE2C6FEF87E090E08A
:101F70000E94CE2C40E050E0BA0188E090E00E9440
:101F8000E02C60E08DE090E00E94CE2C40E050E03C
:101F9000BA0188E190E00E94E02C60E087E190E0E7
:101FA0000E94CE2C40E050E0BA018CE190E00E940B
:101FB000E02C60E070E080E290E00E94EC2C40E0D9
:101FC00050E0BA0188E190E00E94E02C0C94820F6E
:101FD0000C94890F682F8EE090E00C94CE2C0E9418
:101FE0009A246093B7037093B8038093B9039093D6
:101FF000BA036093B3037093B4038093B5039093D3
:10200000B603089585B7806885BF85B7806885BFAA
:10201000089581E008950C94091008950C940D1012
:102020000C940D100C9410100C940D100C941410B2
:102030000C940D100E9402108AE093E10E94E022AD
:102040000E9418100C9416100E940E100C940D1083
:102050000E9485240E943A14EEE2F4E080818068B8
:10206000808380912E0490912F040E94640F0E941F
:10207000CC200C9412106F927F928F929F92AF920D
:10208000BF92CF92DF92EF92FF920F931F93CF9365
:10209000DF93CDB7DEB72A970FB6F894DEBF0FBE39
:1020A000CDBF0E944F1481110E94EF0F37EA832E9B
:1020B00033E0932E00E010E0E02E802F0E944813C2
:1020C0005C01F401619071904F01682679266114DA
:1020D0007104B1F40F5F1F4F0630110569F78FEFE0
:1020E00089838A831B820E948E248160782F9D833E
:1020F0008C8349815A816B818D810E94F50443C094
:102100008091BB0381FD0E945813F12CCC24C39411
:10211000D12CC3018C219D21892B71F10E940B10C0
:10212000AC20BD208823A1F0FE82EF8281E0A114C3
:10213000B10409F480E088870E948E248160782FA2
:102140009A8789874E815F8168858A850E94F50418
:10215000000F111FF801E955FC4F80819181C826BD
:10216000D926D182C08241E0AB2809F440E06F2D2E
:102170008E2D0E942C1A07C0F394CC0CDD1CFFE0BE
:10218000FF12C7CFA7CF0E942D1B0E94EA22909179
:10219000A6038917D1F00E94EA228093A6032A960B
:1021A0000FB6F894DEBF0FBECDBFDF91CF911F9168
:1021B0000F91FF90EF90DF90CF90BF90AF909F90E6
:1021C0008F907F906F900C94EC042A960FB6F89441
:1021D000DEBF0FBECDBFDF91CF911F910F91FF905A
:1021E000EF90DF90CF90BF90AF909F908F907F90B7
:1021F0006F90089580E090E0089508952AE5829F09
:10220000C0011124FC012FE0729FE00DF11D11248B
:10221000E60FF11DEE0FFF1FEC5BFD4F85919491D2
:102220000895880F991FFC01EC5EFA4F85919491F7
:102230000895CF93DF930E943312EC01811520E5BE
:10224000920708F041C0811540E4940708F0CBC024
:10225000803E910520F5803C910508F0B8C0883A91
:10226000910570F4853A910508F0A8C08130910578
:1022700009F4A1C008F4EBC0049708F0EBC0E7C074
:102280008F3B910508F0E3C0885AC82FD0E0CC0FEF
:10229000DD1FC555DD4F888199819464DCC08115AF
:1022A00050E2950750F4C11581E0D80708F0D2C07C
:1022B000C83ED10508F4CEC0CAC0811520E39207FC
:1022C00008F08AC09F7085C0811545E5940708F025
:1022D00046C0811554E5950708F09DC0C11582E5FB
:1022E000D80718F5C11521E5D20708F07FC0CE0147
:1022F000F4E096958795FA95E1F7282F23703C2F07
:10230000337081E090E002C0880F991F3A95E2F7A0
:102310009C68922B2C2F2F702695269540E2249FA7
:1023200090011124822B932B96C09E01237033279A
:102330009C2F96959695C115D34508F05CC041E059
:1023400050E002C0440F551F2A95E2F780E2989FA3
:1023500090011124CA01822B932B9C687CC08115AB
:1023600059E5950798F4C11588E5D80708F058C0D5
:10237000C11526E5D20708F06AC08C2F0E94C7124B
:102380008F7190E0982F8827906265C081154AE58B
:10239000940708F44AC090568115904208F057C03F
:1023A0008D2F8F710E94C7129E01332730628F716B
:1023B000A901582B4AC081E090E04DC0855AC82F32
:1023C000D0E0C752DD4F888190E0906444C0805CCB
:1023D00091090E9411113FC09927D3FF02C0986C48
:1023E0003AC0906C38C09F70906A35C09C2F882787
:1023F000816F906A30C041E050E002C0440F551F29
:102400002A95E2F780E2989F90011124CA01822B5D
:10241000932B9A6820C0982F8827846F906A1BC0DE
:102420009C2F8827806F906A16C08F700E94C712F9
:102430009E0194E0369527959A95E1F72F7030E04C
:10244000322F22273069A901482BCA0104C080E03D
:1024500090E001C0CE01DF91CF9108950E94FE105F
:102460000E94191108958238910569F1B0F4813301
:10247000910509F46DC048F48932910509F463C0EF
:102480008A32910509F469C008958533910509F4EC
:1024900055C089339105B9F00895833E910569F1DE
:1024A00038F4803E9105B1F0823E910509F108951E
:1024B000863E9105A9F1873E9105B9F1843E9105CB
:1024C00009F064C023C020912E0420FD4FC021FDDF
:1024D0004DC0089580912E0480FD44C080912F044A
:1024E00080FF44C080912E0484FD42C083EE4DC025
:1024F00080912E0482FF38C0F5CF80912E0482FD9A
:1025000033C080912F0480FD31C0ECCF80912F0427
:1025100081FF32C080912E0484FD2AC087EE35C031
:1025200080912E0483FF26C0F5CF80912E0483FD79
:1025300021C080912F0481FD1FC0ECCF80912E041B
:1025400085FD1CC01DC080912E0485FD19C016C0DC
:1025500080912E0486FD16C017C080912E0486FD42
:1025600013C010C089E311C082EE0FC080EE0DC011
:1025700080E00BC086EE09C084EE07C089E205C08A
:1025800085E303C08AE201C081E390E00895909161
:102590002E0492FF0DC0282F2871283019F4877F50
:1025A000846006C0282F2471243011F48B7F88604A
:1025B00093FF0DC0282F2871283119F4877E84617C
:1025C00006C0282F2471243111F48B7E886120915C
:1025D0002F0420FF0DC0382F3871383019F4877F51
:1025E000816006C0382F3171313011F48E7F8860E0
:1025F00021FF0DC0282F2871283119F4877E8161B1
:1026000006C0282F2171213111F48E7E886194FD3E
:10261000877E089580E008950C943A0F0E944F142D
:102620008FE39CE90197F1F700C000000E944F146E
:1026300080E00E94481380FF04C00E940C130C9499
:10264000F72408950C940E130E94400F811102C0CC
:102650000E94E80F0E944B0F8093BB030E94530F10
:1026600090932F0480932E040E9422130E944F0FF8
:10267000682F70E080E090E00E94DF0860914103E5
:102680007091420380914303909144030C94170985
:1026900090E0880F991FDC01A45CBB4FFC01E2595C
:1026A000FD4F2D913C918081918182239323089548
:1026B000089580EA8A95F1F7089500C008950C9472
:1026C000591308950C9461130C9462130C946113C4
:1026D0000C94661390E0880F991FFC01442319F0B5
:1026E000E05DFB4F02C0E45CFB4F8081918121E003
:1026F00030E002C0220F331F6A95E2F72823392306
:1027000081E0232B09F480E00895F894E82FE29506
:10271000EF70F0E031A1282F2F7081E090E001C030
:10272000880F2A95EAF7982F9095932391A392A169
:10273000892B82A3789408950F931F93CF93DF93EF
:10274000CCEDD2E089918F3F11F00E94851382E099
:10275000CB3ED807B9F7CBEED2E001EF12E089917A
:102760008F3F11F00E9485130C171D07C1F7DF91F1
:10277000CF911F910F910895AF92BF92DF92EF9288
:10278000FF920F931F93CF93DF93C62FD0E0C452D5
:10279000DD4F28812F3F09F463C08A01F62EE92E10
:1027A000D82EF894E22FE295EF70F0E091A1822FFD
:1027B0008F7021E030E001C0220F8A95EAF7892F5F
:1027C000822B81A382A12095282322A378940E94A2
:1027D0005D138BEEA82E82E0B82EED2DFE2D9F010D
:1027E000245F3F4FE12CA80140955095D5016D9194
:1027F0005D016F3FC9F0862F82958F7090E0DC01FC
:1028000090968C9190E06F7002C0959587956A952F
:10281000E2F780FD09C080819181802B912B91830B
:102820008083EE24E39406C08081918184239523E4
:10283000918380833296E217F307C1F688818F3F38
:1028400011F00E9485136E2D8F2DDF91CF911F9176
:102850000F91FF90EF90DF90BF90AF900C945F13BB
:10286000DF91CF911F910F91FF90EF90DF90BF907C
:10287000AF9008950E949C138CE0ECE3F4E0DF013C
:10288000982F1D929A95E9F7E0E3F4E0DF011D929D
:102890008A95E9F786E00E94A4140C945904CF921B
:1028A000DF92FF920F931F93CF93DF93CDB7DEB7E5
:1028B0002C970FB6F894DEBF0FBECDBF8E010F5F11
:1028C0001F4F8CE0F80111928A95E9F7F12CCC2486
:1028D000C394D12CA6016F2DC8010E94BC13F394A0
:1028E000CC0CDD1CFFE0FF12F5CF4CE050E0B8014E
:1028F00080E394E00E94932CFF24F394009709F462
:10290000F12C892B41F08CE0F801A0E3B4E00190B8
:102910000D928A95E1F72F2D46E06CE374E080E399
:1029200094E00E94A5140E9461048F2D2C960FB68E
:10293000F894DEBF0FBECDBFDF91CF911F910F91F5
:10294000FF90DF90CF9008950895FF920F931F930B
:10295000CF93DF93F82E092F162FD72FC42F2223C2
:1029600049F081E08093BE030E948E249093BD03C2
:102970008093BC038091BE038823D9F08091BC036F
:102980009091BD030E94A624059798F0EF2DF02F9B
:10299000A12FBD2F80E090E04C2F50E084179507C9
:1029A00034F4219131912D933D930196F7CF1092FC
:1029B000BE03DF91CF911F910F91FF9008950E9468
:1029C000A4260E9428100C94B0260E94B4260E94CF
:1029D0003B100C94CE260E9414240E948B260E9449
:1029E0001A100E94DF140E94E5140E942410FBCFED
:1029F000EF92FF920F931F93CF93DF938B01682F7A
:102A000011110AC0442329F0E82FF0E0EC5EFA4FE0
:102A10006491762F862F75C0212F30E0E82FF0E0EB
:102A2000442321F0EC5EFA4FE491F0E046E0049F8D
:102A3000C0011124CFEFD0E0BE010E94DE2B4BEA93
:102A40004603C001479F900D1124800F911D800FF8
:102A5000911D982F990F890FAE01421B530B4E9F6A
:102A6000D0014F9FB00D5E9FB00D11249B2F189F7A
:102A7000A0011124452F55278E01041B150B0E9F15
:102A8000A0010F9F500D1E9F500D11247E01E81ACA
:102A9000F108E29E8001E39E100DF29E100D1124BC
:102AA000212F3327C21BD30BCE9F9001CF9F300D18
:102AB000DE9F300D112462307105A9F048F46115D4
:102AC000710569F061307105C9F48B2F752F0DC048
:102AD0006430710581F058F06630710579F47E2F0D
:102AE0008B2F932F0DC0832F7B2F9E2F09C08E2FEE
:102AF0007B2F952F05C08E2F732F02C07E2F852F21
:102B0000692FDF91CF911F910F91FF90EF90089562
:102B100041E00E94F814089520E030E0869F212DC6
:102B2000969F200D311D1124C9010895BC018230EA
:102B3000910508F40895613E8EE1780748F49B0101
:102B400095E0369527959A95E1F748E0420F01C048
:102B50004FEF91E0242F30E0290F311D3595279557
:102B6000229FF001239FF00DF00D11246E177F07B7
:102B700018F44FEF420F04C02F3F39F091E0920F4D
:102B8000491740F78FEF890F08958FEF0895482F69
:102B9000982F46FD9095E92FEF739F7046FD9F5F3C
:102BA000E295EF70EE0FF0E0EF50FD4F2181299F8D
:102BB000802D212D112482958F702295207F822BCC
:102BC0003081982F930F892F47FD81958058089564
:102BD000622F0895E42FF0E0EE0FFF1FE25AFE4F40
:102BE0006081621B0895E42FF0E0EE0FFF1FE15AB1
:102BF000FE4F6081621B0895A22F50E0FA01EE0F94
:102C0000FF1FE15AFE4F9081905297FD9195440F1E
:102C1000551FFA01E25AFE4F3081232F30E02A1B64
:102C20003109290F311D97FD3A95620F0895EF92F2
:102C30000F931F9393E0099F800111241595079529
:102C40006E2D600F1F910F91EF9008950F93CF930A
:102C5000DF93D72FC82F47FD4195E8E3F0E0CF0180
:102C6000841B910947FD9395889FB001899F700D42
:102C7000700D1124229FC001239F900D900D1124EF
:102C8000860F971F0E949615682F660F860F682F74
:102C9000600F7D2F8C2FDF91CF910F9108950F93AF
:102CA0001F93522F10E0F801EE0FFF1FE15AFE4F65
:102CB000E081F0E0B0979F015203D001539FB00D27
:102CC0001124000F111FF801E25AFE4F008110E09D
:102CD0000057110940039001419F300D11242A0F24
:102CE0003B1F37FF02C021583F4F220F232F221FC7
:102CF000330B620F1F910F9108950F931F93522F63
:102D000010E0F801EE0FFF1FE15AFE4FE081F0E006
:102D1000B097EE0FFF1F9F015203D001539FB00DDC
:102D20001124000F111FF801E25AFE4F008110E03C
:102D300000571109000F111F40039001419F300DF2
:102D400011242A0F3B1F37FF02C021583F4F220F8B
:102D5000232F221F330B620F1F910F910895FC0147
:102D60009B01AC0197FF04C044275527481B590B12
:102D7000BA01620F731F37FD0CC0241B350BC9014C
:102D8000A5E0880F991FAA95E1F70E94F22B80E237
:102D90000CC0CB0165E0880F991F6A95E1F7BA0175
:102DA000621B730B0E94F22B80E6861BF7FD819558
:102DB0000895EF920F93CF93DF93D72FC82FC901B8
:102DC0000E19009721F457FF06C080E805C0BA012C
:102DD0000E94AF1601C080E0602F681B7D2F8C2FF2
:102DE000DF91CF910F91EF9008950F93CF93DF93E1
:102DF000D72FC82FC901009721F457FF06C080E8DC
:102E000005C0BA010E94AF1601C080E0602F680FB4
:102E10007D2F8C2FDF91CF910F9108950E948815FF
:102E20000895E8E4F4E081E1808380916B02909161
:102E30006C02A0916D0281839283A3838FE78483C8
:102E40008FEF858346E050E06CE170E0CF010E9497
:102E5000BE2C1092BF030895E091FF02F091000391
:102E60000994E091FB02F091FC0209944F925F9269
:102E70006F927F928F929F92AF92BF92CF92DF928A
:102E8000EF920F931F93CF93DF932C013B01FC0133
:102E9000C08181E1C89FC02D1124D1E1DC0FD33561
:102EA00008F0D2E560914C04669580914E049091B3
:102EB0004F040E948C15182FCD1708F044C08C2E9B
:102EC000912CF401EE5FFD4F9081F2018181892305
:102ED000C1F1F401EE0FFF1FE25AFE4FC080D12C6A
:102EE000F0E7CF1AD108F401EE0FFF1FE15AFE4FB1
:102EF000A080B12C80E2A81AB108CC9C9001CD9C96
:102F0000300D300D1124AA9CC001AB9C900D900D8A
:102F10001124820F931F0E949615082F6091490477
:102F200070914A0480914B04E12E9501A601F301B2
:102F300009950E940E17462F282F672FC4010E9463
:102F40003117CF5FB9CF81E0D23508F080E0DF9153
:102F5000CF911F910F91EF90DF90CF90BF90AF90E6
:102F60009F908F907F906F905F904F90089567E152
:102F700076E10C94361769ED76E10C943617AF9232
:102F8000BF92CF92DF92EF92FF920F931F93CF9356
:102F9000DF936C015B01FC01C08181E1C89FC02D02
:102FA0001124D1E1DC0FD33508F0D2E560914C0457
:102FB000669580914E0490914F040E948C15182FB5
:102FC000CD1778F5EC2EF12CF701EE5FFD4F9081D7
:102FD000F6018181892319F1F701EE0FFF1FE15AF4
:102FE000FE4F208130E020523109F701EE0FFF1F24
:102FF000E25AFE4F408150E0405751096091490428
:1030000070914A0480914B04012FF50109950E94AB
:103010000E17462F282F672FC7010E943117CF5F49
:10302000CFCF81E0D23508F080E0DF91CF911F91C2
:103030000F91FF90EF90DF90CF90BF90AF900895E9
:1030400066E276E10C94BF1765EF76E10C94BF174A
:10305000BF92CF92DF92EF92FF920F931F93CF9385
:10306000DF938C017B01FC01C08181E1C89FC02DF1
:103070001124D1E1DC0FD33508F0D2E560914C0486
:103080006695669521E0620F08F46FEF80914E041B
:1030900090914F040E948C15B82ECD17F0F4CC2ED1
:1030A000D12CF601EE5FFD4F9081F80181818923DB
:1030B00091F06091490470914A0480914B042B2D4A
:1030C0004C2FF70109950E940E17462F282F672FC6
:1030D000C6010E943117CF5FE0CF81E0D23508F002
:1030E00080E0DF91CF911F910F91FF90EF90DF90E3
:1030F000CF90BF90089568EE75E10C9428186AEEA1
:1031000075E10C94281863EF75E10C9428186CEFA6
:1031100075E10C9428187F928F929F92AF92BF9284
:10312000CF92DF92EF92FF920F931F93CF93DF9393
:103130006C015B01FC01C08181E1C89FC02D11249D
:10314000D1E1DC0FD33508F0D2E560914C046695EF
:10315000669580914E0490914F040E948C15182F13
:1031600080E4810F0E94C71590E8F92EF80E812F98
:103170000E94C71520E8722E780ECD1700F58C2E10
:10318000912CF401EE5FFD4F9081F601818189233E
:10319000A1F06091490470914A0480914B04E12EA2
:1031A0000C2F272D4F2DF50109950E940E17462F44
:1031B000282F672FC4010E943117CF5FDECF81E037
:1031C000D23508F080E0DF91CF911F910F91FF90F1
:1031D000EF90DF90CF90BF90AF909F908F907F90B7
:1031E00008956FE476E10C948B186DE776E10C940A
:1031F0008B18DF92EF92FF920F931F93CF93DF9381
:103200008C01DC018C91C1E18C9FC02D1124D1E196
:10321000DC0FD33508F0D2E56091490470914A047F
:1032200080914B040E940E17F62EE72ED82ECD1754
:1032300098F4EC2FF0E0DF01AE5FBD4F8C91D80128
:1032400011969C91982331F02D2D4F2D6E2DCF018D
:103250000E943117CF5FEBCF81E0D23508F080E0DC
:10326000DF91CF911F910F91FF90EF90DF90089524
:10327000DF92EF92FF920F931F93CF93DF938C0116
:10328000DC01CC9181E1C89FC02D1124D1E1DC0F7C
:10329000D33508F0D2E5E0904904F0904A04D0908C
:1032A0004B0460914C0466956695669580914E043A
:1032B00090914F040E948C150E94C715805887FD7D
:1032C0008195880F282F3D2D239F212D1124822F9A
:1032D000B7010E940E17F62EE72ED82ECD1798F4C0
:1032E000EC2FF0E0DF01AE5FBD4F8C91D80111965D
:1032F0009C91982331F02D2D4F2D6E2DCF010E94E2
:103300003117CF5FEBCF81E0D23508F080E0DF915D
:10331000CF911F910F91FF90EF90DF900895DF9272
:10332000EF92FF920F931F93CF93DF93EC01FC0179
:10333000EE5FFD4F9081692381F1D0904A040091A6
:103340004B0410914904E12EF12C0E947A2C282F75
:10335000C7018C549F4F68E671E00E94F22B8E19D2
:103360009F0997FD03969595879595958795237069
:10337000612F289F600D11247D2D802F0E940E1734
:10338000462F282F672FCE01DF91CF911F910F91EC
:10339000FF90EF90DF900C943117DF91CF911F9148
:1033A0000F91FF90EF90DF900895CF92DF92FF9200
:1033B0000F931F93CF93DF938C01FC01C281C11146
:1033C0001DC060914C0420E1620F08F46FEF809102
:1033D0004E0490914F040E948C156AE070E00E94A8
:1033E000DE2B892B59F50E947A2C62E570E00E9451
:1033F000F22BF80161810E948F1920C0FC018081AD
:10340000C1E18C9FC02D112491E1F92EFC0EF2E553
:10341000FF1510F482E5F82ED0E0CF2CD12CCC157E
:10342000DD053CF4F8016181CE010E948F192196DF
:10343000F6CFC1E0F1E5FF1508F4C0E08C2FDF9175
:10344000CF911F910F91FF90DF90CF900895E09161
:10345000FD02F091FE0209940C94091080914E0433
:1034600090914F04A0915004B091510488279C7012
:10347000AA27BB272AE0B695A795979587952A9501
:10348000D1F782309105A105B10571F08330910526
:10349000A105B10569F040E00197A105B10511F062
:1034A00060E008C064E102C044E160E080E003C085
:1034B00044E164E184E10C94271ACF93C82F8091F2
:1034C0005C028C130DC020914804237030E04091C1
:1034D0005D0250E081E02417350719F480E001C057
:1034E00081E0817080935B0280914D0490915A023B
:1034F000981739F080935A0240E060E080E00E9423
:10350000271AC73009F589E592E00E94B71708C06D
:10351000C430B0F5C13009F589E592E00E94F91890
:10352000909159029F5F90935902811172C082E07D
:103530008093580280915B0281116BC0C11169C0F8
:1035400083E08093580265C0C83068F5C33001F746
:1035500089E592E00E947B18E3CFC23050F480915D
:103560005B02882359F040E060E080E00E94271A67
:1035700005C089E592E00E943819D2CF80E0D0CF13
:10358000C53029F489E592E00E948318C9CFC6307E
:1035900028F489E592E00E947F18C2CF89E592E085
:1035A0000E948718BDCFCB3029F489E592E00E94B4
:1035B000F118B6CFCC3098F4C93029F489E592E0FF
:1035C0000E942418ADCFCA3028F489E592E00E9409
:1035D0002018A6CF89E592E00E94BB17A1CFCD307D
:1035E00029F489E592E00E94D5199ACFCD3028F4CC
:1035F00089E592E00E94F51893CFCF3F21F40E9415
:103600002E1A82E09ECF809159028F5F80935902DB
:103610008ECFCF91089508950C940B1B0E940C1B24
:103620000C940B1B08950C94121BCF93DF93FC0199
:10363000C081C15081E1C89FC02D1124D1E1DC0FB0
:10364000D33508F0D2E56D2F8C2F0E94131B6D2F00
:103650008C2FDF91CF910C94121BCF930E949A2450
:103660006093C0037093C1038093C2039093C3031C
:103670002091C403211108C0C09148042C2F23704D
:1036800019F0C695C69501C0C0E0209158022130BE
:1036900091F028F02230D9F0233031F144C010925B
:1036A000590260934E0470934F048093500490939A
:1036B000510481E016C08C2F0E945D1ACC2399F131
:1036C0000E940E1B89E592E0CF910C94151BC093CC
:1036D0005C0280914804837080935D020E942C17E5
:1036E00083E0809358021FC08091BF03882351F06C
:1036F00046E050E06CE170E088E494E00E94BE2C6B
:103700001092BF0360914E0470914F048091500459
:10371000909151040E94B524603171058105910595
:1037200010F010925802CF910895E091F902F091B3
:10373000FA0209950E94400F811104C00E94E80F0F
:103740000E94111746E050E06CE170E088E494E0DC
:103750000E94A02C1092BF03809148048C7F11F42A
:103760000C9411170895CF93C82F882391F080915E
:10377000C40381110EC00E945D1A10925C028091F8
:103780004804837080935D020E942C1783E080932D
:103790005802C093C403CF910895E8E4F4E0208177
:1037A00091E092279083109258029091BF03892B49
:1037B0008093BF03089581E00C94CD1B9091480441
:1037C0009370A1F0811102C0946007C08E3010F098
:1037D000946303C0880F880F982B9093480410922D
:1037E00058028091BF03682B6093BF03089561E086
:1037F0000C94DE1B682F90914804969596959F5FD8
:103800009E3010F4892F01C081E00C94DE1B81E012
:103810000C94FA1B682F90914804969596959150B8
:1038200011F0892F01C08DE00C94DE1B81E00C9417
:103830000A1C90914804937059F080934904609356
:103840004A0440934B048091BF03282B2093BF036D
:103850000895A8E4B4E01196EC911197F0E0282FB8
:1038600013964C91139712966C91CF0108960C9475
:10387000191C81E00C94291CA8E4B4E01196EC9189
:103880001197F0E0282F13964C91139712966C9194
:10389000CF0108970C94191C81E00C943C1CE8E4BF
:1038A000F4E0628120E1620F08F46FEF9181282F2C
:1038B0004381892F90E00C94191C81E00C944F1CDB
:1038C000E8E4F4E0628120E1621B08F460E09181A9
:1038D000282F4381892F90E00C94191C81E00C94CF
:1038E000601CE8E4F4E0438120E1420F08F44FEF6C
:1038F0009181282F6281892F90E00C94191C81E01E
:103900000C94711CE8E4F4E0438120E1421B08F4CC
:1039100040E09181282F6281892F90E00C94191C3E
:1039200081E00C94821C80934C048091BF03682B2F
:103930006093BF03089520914C0430E1230F08F4F5
:103940002FEF682F822F0C94931C81E00C949B1C0A
:1039500020914C0430E1231B08F420E0682F822FD3
:103960000C94931C81E00C94A81C60E080E50E94FC
:10397000841E61E08FE50C94841ECF930E94022286
:1039800060E080E50E941D1D60E08FE50E941D1D26
:10399000C0E021E041E061E08C2F0E94D01DCF5FAC
:1039A000C235B9F760E080E50E94B61E61E08FE5A0
:1039B000CF910C94B61E6093D2054093D30524E6B4
:1039C00030E042E050E062ED75E0880F0E94B922DD
:1039D00021E0892B09F020E0822F0895EF92FF92D9
:1039E0001F93CF93DF937B01182F110FC0E0D0E01E
:1039F000C093D205D701AC0FBD1FE3EDF5E08D916B
:103A0000819385E0E33EF807D1F724E630E041E119
:103A100050E062ED75E0812F0E94B922892B31F4CC
:103A20006096C03CD10521F781E001C080E0DF91C4
:103A3000CF911F91FF90EF9008951F93CF93DF9345
:103A4000C82FD62F45EC6EEF0E94DB1C40E06DEFD7
:103A50008C2F0E94DB1C10E040E0612F8C2F0E9415
:103A6000DB1C1F5F1831C1F745EC6EEF8C2F0E94F5
:103A7000DB1C41E06DEF8C2F0E94DB1C10E040E06E
:103A8000612F8C2F0E94DB1C1F5F103CC1F745EC9F
:103A90006EEF8C2F0E94DB1C43E06DEF8C2F0E9499
:103AA000DB1C40E06FE08C2F0E94DB1C40E060E1FB
:103AB0008C2F0E94DB1C4FEF61E08C2F0E94DB1CDF
:103AC00080E4D89FA0011124416060E08C2F0E9407
:103AD000DB1C8FE39CE90197F1F700C00000DF9148
:103AE000CF911F910895FF920F931F93CF93DF9370
:103AF00000D000D0CDB7DEB78235910568F5122F22
:103B0000042FF62EBC01660F771F660F771F6450D7
:103B10007F4F44E050E0CE0101960E948A2C8981BB
:103B200083702A81E82FF0E030EC839FC0011124DC
:103B30008E5A9B4FDC01A20FB11DFC922B81DC0140
:103B4000A20FB11D0C932C81DC01A20FB11D1C939F
:103B5000E950FC4F81E080830F900F900F900F9001
:103B6000DF91CF911F910F91FF900895FF920F93D6
:103B70001F93CF93DF93182F062FF42EC0E0D0E0D1
:103B80002F2D402F612FCE010E94731D2196C2352B
:103B9000D105B1F7DF91CF911F910F91FF9008955B
:103BA000EF92FF920F931F93CF93DF9300D000D03B
:103BB000CDB7DEB7F62E042F122F24E0829FC0016E
:103BC0001124BC0164507F4F44E050E0CE010196C7
:103BD0000E948A2C5A81852F8695869586954B81E1
:103BE000A42FA695A695A6953C81E32EE694E6948F
:103BF000E694577047703770298190E0622F6370A8
:103C0000FF2089F078E1679F800D911D1124895371
:103C10009C4F61E070E001C0660F5A95EAF7FC0125
:103C20005081652B11C0F8E16F9F800D911D11240B
:103C300089539C4F61E070E001C0660F5A95EAF726
:103C40006095FC01508165236083B0E0822F837012
:103C5000002381F0F8E18F9FA00DB11D1124A9531D
:103C6000BC4F81E090E001C0880F4A95EAF79C9133
:103C7000892B10C078E1879FA00DB11D1124A95395
:103C8000BC4F81E090E001C0880F4A95EAF780952B
:103C90009C9189238C93EE2DF0E0822F8370112369
:103CA00081F098E1899FE00DF11D1124E953FC4F4B
:103CB00081E090E001C0880F3A95EAF79081892B66
:103CC00010C078E1879FE00DF11D1124E953FC4FEE
:103CD00081E090E001C0880F3A95EAF780959081E5
:103CE000892380832370E22FF0E0EB53FC4F81E0C7
:103CF00080830F900F900F900F90DF91CF911F91C5
:103D00000F91FF90EF900895EF92FF921F93CF9342
:103D1000DF93C62FD0E09E0129503C4F7901F90175
:103D200090819923D9F0182F45EC6EEF0E94DB1C8F
:103D300041E06DEF812F0E94DB1C80EC8C9FB00175
:103D40008D9F700D11246E5A7B4F812F0E94EE1CA7
:103D5000811104C0CB53DC4F81E08883F7011082CE
:103D6000DF91CF911F91FF90EF900895CF92DF9256
:103D7000FF920F931F93CF93DF93262F30E0A9017B
:103D80004B535C4F6A01FA01908191110AC0F60110
:103D90001082DF91CF911F910F91FF90DF90CF9014
:103DA0000895C62FF82E45EC6EEF0E94DB1C40E014
:103DB0006DEF8F2D0E94DB1CF8E1CF9FE0011124F5
:103DC00000E010E0F801EC0FFD1FE953FC4F4081CB
:103DD000602F8F2D0E94DB1C0F5F1F4F08311105D4
:103DE00089F7D5CF882311F0FA0101C0FB010994AE
:103DF0001F93CF93DF93FB011281112309F48CC031
:103E0000EC010E94570E8272CB3CFCE5DF0709F4FF
:103E10006EC048F5C63CECE5DE0709F454C070F40A
:103E2000C43C9CE5D90709F442C008F045C0C33C36
:103E3000DC4509F074C00E94DB1B70C0C83C9CE5E7
:103E4000D90709F44AC008F443C0C93CFCE5DF07C0
:103E500009F448C0CA3CDC4509F061C040E95CE1B6
:103E60006FE77CE12DC0C03DECE5DE0709F450C0F2
:103E700088F4CD3C9CE5D90709F443C0E8F1CE3C79
:103E8000FCE5DF0709F442C0CF3CDC4509F047C040
:103E900082E03FC0C73D9CE5D90728F4C23DDC4520
:103EA000E8F589E036C0CE35DD45C1F138C046E1E0
:103EB0005CE167E07CE104C047E05CE166E17CE155
:103EC0000E94F21E2BC04CE45CE169E37CE1F8CF78
:103ED00049E35CE16CE47CE1F3CF4EE65CE16DE547
:103EE0007CE1EECF4DE55CE16EE67CE1E9CF4FE7AA
:103EF0005CE160E97CE1E4CF42EB5CE165EA7CE116
:103F0000DFCF45EA5CE162EB7CE1DACF81E001C022
:103F100084E00E94F71B02C011E001C010E0812F75
:103F2000DF91CF911F910895CF93DF93EC01FB01B7
:103F30008281882309F426C1C430FDE5DF0760F4DF
:103F4000CB3F9CE5D90768F49E0122503C452431C3
:103F5000310508F018C105C0C236EDE5DE0709F0ED
:103F600012C10E94530F90932F0480932E04C031EE
:103F7000FCE5DF0709F4CAC008F041C0C8309CE581
:103F8000D90709F4A4C0F0F4C430FCE5DF0709F454
:103F90008CC068F4C2309CE5D90709F482C0C330F4
:103FA000DC4509F0E5C080912E048260DFC0C63098
:103FB000FCE5DF0709F483C008F085C080912E047A
:103FC0008860D4C0CC309CE5D90709F490C068F46F
:103FD000CA30FCE5DF0709F47EC008F084C00E9407
:103FE0007E0880912E048068C1C0CE309CE5D90740
:103FF00009F481C008F086C080912E0494C0CD3FA2
:10400000FCE5DF0709F47BC038F5C4319CE5D9072E
:1040100009F49AC058F4C231FCE5DF0709F47AC00C
:1040200008F07EC080912E048F7BA0C0CB3F9CE522
:10403000D907F1F108F03FC0C531DC4509F098C05F
:1040400080912E0482FB222720F991E0922790FB99
:1040500082F990FB83F98AC0C1308DE5D80709F455
:1040600067C050F480912F04CF3FECE5DE07C1F12B
:1040700008F05BC08D7F65C0C3308DE5D80709F4BB
:1040800071C008F46DC0C236DD4509F071C0809181
:104090002E0484FB222720F991E0922790FB84F9DB
:1040A00065C080912E04816061C080912E0416C08D
:1040B00080912F0416C080912F04826042C08091AD
:1040C0002E04806153C080912E0480624FC0809185
:1040D0002E0480644BC080912E048860846046C0AA
:1040E000826081602EC080912E048E7F3FC08091BF
:1040F0002E048D7F3BC080912E04877F37C0809136
:104100002F0414C080912E048F7E30C080912E0425
:104110008F7D2CC00E947E0880912E048F7726C050
:1041200080912E04877F8B7F21C08D7F8E7F09C079
:1041300080912F04982F909591708E7F892B90FB02
:1041400081F980932F0414C00E947E0880912E0470
:1041500087FB222720F991E0922790FB87F906C080
:1041600081E001C080E00E94EA0F02C080932E042B
:1041700080912E0490912F040E94640F0E947E086B
:1041800080E001C081E0DF91CF91089581E0089542
:1041900081E008950C94C8201092FC031092FB0358
:1041A0000895CF92DF92EF92FF92CF93C82F809124
:1041B000FB039091FC03843F21E0920750F40196A9
:1041C0009093FC038093FB030A9701F541E0C1E063
:1041D00001C040E061E080E00E946A138093FA032E
:1041E000C82ED12CE12CF12C9091F903891302C037
:1041F000CC2361F0682F80E00E94E903C701B6017B
:104200000E94CA208091FA038093F903CF91FF9016
:10421000EF90DF90CF900895CF93DF9386319C4548
:1042200041F5EB010E94570E982F8A81209156028A
:1042300030915702882379F09A7A81E009F480E07E
:104240008093FD03911102C069E201C065E3C901D9
:104250000E94D2230AC08091FD03811102C069E24D
:1042600001C065E3C9010E94DD230E94A90E80E020
:1042700001C081E0DF91CF9108950F931F93CF93F9
:10428000DF93C42FD22FFC0182818823C9F0409391
:1042900000040E948E249093FF038093FE0380E22B
:1042A0008C0F883008F057C0C77081E001C0880FBC
:1042B000CA95EAF7DF91CF911F910F910C94DF051A
:1042C00080910004481330C08091FE039091FF0359
:1042D0000E94A624883C910538F510E21D0FCD17E9
:1042E000B9F080E28C0F883040F4C77081E001C0E3
:1042F000880FCA95EAF70E94E605183028F581E094
:104300009D2F977001C0880F9A95EAF70E94DF05EC
:10431000802F0E94D6051830F0F4D77081E001C0DC
:10432000880FDA95EAF70AC080E28C0F883098F49B
:10433000C77081E001C0880FCA95EAF7DF91CF917D
:104340001F910F910C94E605802FDF91CF911F9163
:104350000F910C94D605DF91CF911F910F91089585
:104360000F939C01CB01243F4CE5340731F188F4D5
:10437000293DFCE53F07D9F02A3D4CE5340779F1AA
:10438000283D3C45A9F506E221EE41EE68ED7CE5CD
:104390002BC0263FFCE53F07E1F0A8F0273F3C4556
:1043A00039F507E225EE46EE67EF7CE51DC007E232
:1043B00025EE45EE69ED7CE517C006E221EE40EE04
:1043C00064EF7CE511C007E225EE44EE65EF7CE585
:1043D0000BC006E221EE42EE66EF7CE505C008E286
:1043E00021E045EE6AED7CE50E943D2180E008C0B9
:1043F000FC018281882319F01092000401C081E041
:104400000F9108951092B9008CE08093B800089540
:104410009F92AF92BF92CF92DF92EF92FF920F9353
:104420001F93CF93DF93B82EEB010E948E246C0173
:10443000C431D10558F0CF3F8FEFD80759F0CE01E6
:1044400064E170E00E94DE2B7B0107C0EE24E39460
:10445000F12C03C025E0E22EF12C84E8A82E94EA8A
:10446000992E1092BC009092BC000E948E248C0168
:104470008091BC0087FD08C00E948E24801B910B98
:104480008E159F05A8F32AC08091B900887F8830D7
:1044900041F08091B900887F803119F00FEF1FEF54
:1044A0001FC0B092BB00A092BC000E948E248C0161
:1044B0008091BC0087FD08C00E948E24801B910B58
:1044C0008E159F05A8F30AC08091B900887F8831B6
:1044D00011F0803419F700E010E00EC00EEF1FEF6E
:1044E000CF3F8FEFD80709F4BCCFC6010E94A624A6
:1044F0008C179D0708F4B5CFC801DF91CF911F91AC
:104500000F91FF90EF90DF90CF90BF90AF909F9072
:1045100008950F931F93CF93DF93EB018093BB001C
:1045200084E88093BC000E948E248C018091BC00A2
:1045300087FD0EC0CF3F8FEFD807C1F30E948E24B6
:10454000801B910B8C179D0788F38EEF9FEF0CC09B
:104550002091B900287F81E090E0283211F480E0BA
:1045600090E0919581959109DF91CF911F910F91E5
:104570000895CF92DF92EF92FF920F931F93CF9304
:10458000DF936B018A017901B9010E940822E601DB
:104590000C0D1D1DC017D10761F424E92093BC0048
:1045A000DF91CF911F910F91FF90EF90DF90CF900F
:1045B000089597FDF2CFB70189910E948922EACF31
:1045C00090930303809302030895909306048093CD
:1045D00005040895E0910504F0910604309721F058
:1045E0000190F081E02D099480E00895E0910504A8
:1045F000F0910604309799F020916A02222359F035
:1046000020912E0427FF07C0DC012C9111962C93DA
:10461000119726E02C930280F381E02D09940895F0
:1046200020910304309104042817390771F0909306
:10463000040480930304E0910504F091060430978C
:1046400021F00680F781E02D09940895209101045E
:10465000309102042817390771F090930204809377
:104660000104E0910504F0910604309721F00084E4
:10467000F185E02D09940895FC01329680916A023B
:10468000882331F080912E0487FF02C09EE101C093
:1046900096E080E0915028F021912223D9F38F5F9A
:1046A000F9CF0895662351F120916A022223E9F09F
:1046B00020912E0427FF19C0462F46954695469512
:1046C0004E31E0F4677021E030E002C0220F331F6A
:1046D0006A95E2F7FC01E40FF11D828190E0282346
:1046E000392381E0232B69F409C0FC013296089636
:1046F0002191621729F0E817F907D1F780E00895B2
:1047000081E008959C01FC0132969FEF80E0419189
:10471000461789F09F3F19F4411101C0982F8F5F10
:104720008630A9F79F3F39F0F901E90FF11D97FD98
:10473000FA956283089508959C012A5F3F4FFC011A
:104740004281461301C01282019682179307B9F77E
:104750000895262F2695269526952E3168F4FC017E
:10476000E20FF11D677021E030E001C0220F6A9571
:10477000EAF78281282B22830895262F26952695F5
:1047800026952E3170F4FC01E20FF11D677021E0D7
:1047900030E001C0220F6A95EAF720958281282334
:1047A0002283089520916A02222329F020912E0469
:1047B00027FD0C94A9230C94822320916A022223C2
:1047C00029F020912E0427FD0C94BD230C949C23EA
:1047D00020916A02FC013296222331F080912E044E
:1047E00087FF02C08EE101C086E0DF011D928A953D
:1047F000E9F7089508950C94FA2383E08093070461
:104800000C94FB23811102C081E001C082E08093FF
:1048100007040C94FB230C94022481E0809307048A
:104820000C94FB230C940D2408958091EE058430A4
:1048300031F10E9466041092080420E488E190E0BF
:104840000FB6F894A895809360000FBE2093600087
:1048500083B7817F846083BF83B7816083BF78948F
:10486000889583B78E7F83BF0FB6F894A895809103
:104870006000886180936000109260000FBE089510
:1048800008950C944024CF930E9441240E944F1419
:104890000E944024C0E08C2F0E944813892B29F4E9
:1048A000CF5FC630C1F780E001C081E0CF910895AD
:1048B0000E947E080C94DB041F920F920FB60F9299
:1048C00011248F939F93AF93BF938091080481111C
:1048D00013C08091E6059091E705A091E805B0919D
:1048E000E9054196A11DB11D8093E6059093E7056A
:1048F000A093E805B093E905BF91AF919F918F9187
:104900000F900FBE0F901F90189582E084BD93E02A
:1049100095BD9AEF97BD80936E0008952FB7F894D8
:104920008091E6059091E705A091E805B091E90531
:104930002FBF08952FB7F8946091E6057091E705B1
:104940008091E8059091E9052FBF08959C014FB72C
:10495000F8948091E6059091E705A091E805B09163
:10496000E9054FBF821B930B0895CF92DF92EF9220
:10497000FF922FB7F894C090E605D090E705E0903D
:10498000E805F090E9052FBFA7019601261B370B1C
:10499000480B590BCA01B901FF90EF90DF90CF90FF
:1049A000089578941F920F920FB60F9211248F934F
:1049B0009F93AF93BF938091E6059091E705A091F7
:1049C000E805B091E9050196A11DB11D8093E605AA
:1049D0009093E705A093E805B093E905BF91AF91E7
:1049E0009F918F910F900FBE0F901F90189581E0AF
:1049F0008093E00080E28093D8001092C9008FE19C
:104A00009EE40197F1F700C0000087E090EBDC0125
:104A10008093F7059093F805A093F905B093FA05F4
:104A20009CE088E10FB6F894A895809360000FBED3
:104A300090936000FFCF80912C0408950895CF9348
:104A4000DF9320916A02222339F020912E0427FF60
:104A500003C060E222E002C068E021E02093E900A8
:104A60002FEF3091E800215035FD06C035ED3A9525
:104A7000F1F700002111F5CF2091E80025FF1DC0BE
:104A8000EC0180916A02811105C040E050E068E0CD
:104A900070E003C070E040E050E0CE010E9440278B
:104AA0008091E8008E778093E80080E2FE01ACE020
:104AB000B4E001900D928A95E1F7DF91CF910895CE
:104AC0008093090470930B0460930A048091EE05AF
:104AD000843001F582E08093E9008FEF9091E80047
:104AE000815095FD06C095ED9A95F1F70000811172
:104AF000F5CF8091E80085FF0DC040E050E063E015
:104B000070E089E094E00E9440278091E8008E7771
:104B10008093E8000895BC0184E00C946025BC01FA
:104B200083E00C94602508958091ED05811109C002
:104B30000E94D1280E942E298091E20084608093F7
:104B4000E20008951092ED0508950C9412246091EE
:104B5000EA0581E0611101C080E00C94FD23909191
:104B6000EE0581E0943009F080E06091EA050C9454
:104B7000022442E061EC81E00E944A2842E261ECBA
:104B800082E00E944A289091EE0581E0943009F07D
:104B900080E06091EA050C940B248091F00583304D
:104BA00009F461C030F4813071F0823009F49AC0A8
:104BB00008958A3009F486C08B3009F46CC08930BE
:104BC00009F0A8C020C08091EF05813A09F0A2C089
:104BD0008091E800877F8093E8008091F3059091B1
:104BE000F405892B21F460E28CE094E003C060E0DE
:104BF00080E090E070E00E948B278091E8008B7746
:104C00008093E80008958091EF05813209F082C019
:104C10008091F3059091F405029708F07BC0809194
:104C2000E800877F8093E8008091E80082FD05C05E
:104C30008091EE058111F8CF6DC02091F300809135
:104C4000F20090E0922B029731F48091F1008130D4
:104C500011F0863021F48091F10080932C04809132
:104C6000E8008B7753C08091EF05813A09F052C07C
:104C70008091F3059091F405892B09F04BC0809148
:104C8000E800877F8093E8008091E80080FFFCCFF8
:104C900080916A0236C08091EF058132D9F580910A
:104CA000F3059091F405892BA9F58091E800877FA1
:104CB0008093E8000E947F288091F10580936A022A
:104CC0000C947E088091EF05813221F58091E800F7
:104CD000877F8093E8000E947F288091F20580936F
:104CE0002D0408958091EF05813AA1F48091E800A8
:104CF000877F8093E8008091E80080FFFCCF80915F
:104D00002D048093F1008091E8008E778093E80075
:104D10000C947F28089584B7877F84BF0FB6F894DA
:104D2000A895809160008861809360001092600077
:104D30000FBE90E080E80FB6F894809361009093E6
:104D400061000FBE0C940D240E94D1280E942E29D0
:104D5000E2EEF0E080818460808378940C94C32B31
:104D60008EE592E00C94E5228091EE058530A9F461
:104D70008091EE05853079F40E9415248091EC0530
:104D80008823B1F30E944324882391F30E942A27A9
:104D90000E947E08EDCF0C945824089508950C9439
:104DA000D126292F332723303105C9F060F4213073
:104DB000310581F02230310509F044C08BE390E0E9
:104DC00026E436E043C021323105E1F022323105DC
:104DD00049F138C082E190E021E836E037C09927F8
:104DE0008130910549F028F0029761F5E4E1F6E0A1
:104DF00005C0E2E4F6E002C0EEE2F6E0849190E065
:104E00009F0124C06115710541F061307105D1F435
:104E100089E090E021E736E019C089E090E028E5DC
:104E200036E014C06115710541F06130710551F42F
:104E30008DE690E023E936E009C080E490E020E0D0
:104E400037E004C080E090E020E030E0FA013183F8
:104E50002083089580E189BD82E189BD09B400FE07
:104E6000FDCF8091D8008F7D8093D8008091E000A5
:104E700082608093E0008091E00081FDFCCF089586
:104E8000CF92DF92EF92FF920F931F93CF93DF9316
:104E9000EC018B017A010E949E28811133C0E1143C
:104EA000F10439F0F70180819181081B190BC80FBB
:104EB000D91FC12CD12C0115110519F18091E800E1
:104EC00085FD16C08091E8008E778093E800E1149C
:104ED000F10449F0F70180819181C80ED91ED18279
:104EE000C08285E00FC00E949E28882321F30AC05B
:104EF00089918093F10001501109FFEFCF1ADF0A69
:104F0000DACF80E0DF91CF911F910F91FF90EF906A
:104F1000DF90CF9008952091F5053091F605261782
:104F2000370748F06115710539F42091E8002E77B4
:104F30002093E80001C0B901FC0120E06115710572
:104F400079F18091EE058823F1F18530F1F18091BE
:104F5000E80083FD3CC08091E80082FD2EC0809176
:104F6000E80080FFEBCF2091F3008091F20090E009
:104F7000922B6115710551F08830910538F421911B
:104F80002093F100615071090196F3CF21E0089759
:104F900009F020E08091E8008E778093E800CECF82
:104FA0002111CFCF0AC08091EE05882361F08530B2
:104FB00061F08091E80083FD0AC08091E80082FFE3
:104FC000F2CF80E0089582E0089583E0089581E0C3
:104FD00008952091F5053091F6052617370748F01A
:104FE0006115710539F42091E8002E772093E800CF
:104FF00001C0B901FC0120E06115710591F18091BA
:10500000EE05882309F440C0853009F43FC0809143
:10501000E80083FD3DC08091E80082FD2FC08091B3
:10502000E80080FFE9CF2091F3008091F20090E04A
:10503000922B6115710559F08830910540F4249147
:105040002093F1003196615071090196F2CF21E071
:10505000089709F020E08091E8008E778093E800BF
:10506000CBCF2111CCCF0AC08091EE05882361F00F
:10507000853061F08091E80083FD0AC08091E800EE
:1050800082FFF2CF80E0089582E0089583E00895E2
:1050900081E00895982F973068F59093E90098176C
:1050A00039F07091EC002091ED005091F00003C0B8
:1050B000242F762F50E021FD02C09F5FECCF30916E
:1050C000EB003E7F3093EB003091ED003D7F30935D
:1050D000ED003091EB0031603093EB007093EC0009
:1050E0002093ED005093F0002091EE0027FDE5CFD6
:1050F00080E008958F708093E90081E008958091A9
:10510000EF0587FF11C08091E80082FD05C0809106
:10511000EE058111F8CF11C08091E8008B770BC0AC
:105120008091EE05882349F08091E80080FFF8CF58
:105130008091E8008E778093E80008952091E40044
:105140003091E50095E64091EC00842F817040FF9E
:1051500023C08091E80080FD1DC08091EE0588236A
:1051600099F0853099F08091EB0085FD11C0409158
:10517000E4005091E5002417350729F3915011F010
:105180009A01E1CF84E0089582E0089583E00895D4
:1051900081E0089580E008954091E80042FFDDCF6E
:1051A00008950E943F290E944729E0EEF0E08081A7
:1051B00081608083E8EDF0E080818F77808319BC87
:1051C000A7EDB0E08C918E7F8C9380818F7E808361
:1051D0001092ED0508950F931F93CF93DF930E94D4
:1051E0003F290E944729C8EDD0E088818F778883C6
:1051F00088818068888388818F7D888319BC10921C
:10520000EE051092EA051092EC051092EB0500EE07
:1052100010E0F80180818B7F8083888181608883A2
:1052200042E060E080E00E944A28E1EEF0E0808108
:105230008E7F8083E2EEF0E08081816080838081D8
:1052400088608083F80180818E7F8083888180617F
:105250008883DF91CF911F910F910895E8EDF0E0E1
:1052600080818F7E8083E7EDF0E0808181608083A4
:1052700084E082BF81E08093ED050C94EB28E8ED9B
:10528000F0E080818E7F80831092E200089510927A
:10529000DA001092E10008951F920F920FB60F925C
:1052A00011242F933F934F935F936F937F938F932B
:1052B0009F93AF93BF93EF93FF938091E10082FFA1
:1052C0000BC08091E20082FF07C08091E1008B7FDC
:1052D0008093E1000E94C22B8091DA0080FF1FC002
:1052E0008091D80080FF1BC08091DA008E7F809370
:1052F000DA008091D90080FF0DC080E189BD82E194
:1053000089BD09B400FEFDCF81E08093EE050E94C7
:10531000942505C019BC1092EE050E94A22580912B
:10532000E10080FF19C08091E20080FF15C08091EC
:10533000E2008E7F8093E2008091E20080618093A2
:10534000E2008091D80080628093D80019BC85E08B
:105350008093EE050E94A7258091E10084FF30C074
:105360008091E20084FF2CC080E189BD82E189BD8B
:1053700009B400FEFDCF8091D8008F7D8093D800C6
:105380008091E1008F7E8093E1008091E2008F7E2A
:105390008093E2008091E20081608093E20080913E
:1053A000EA05882311F084E007C08091E30087FDBF
:1053B00002C081E001C083E08093EE050E94AF252A
:1053C0008091E10083FF29C08091E20083FF25C026
:1053D0008091E100877F8093E10082E08093EE0579
:1053E0001092EA058091E1008E7F8093E100809128
:1053F000E2008E7F8093E2008091E20080618093E2
:10540000E20042E060E080E00E944A288091F000E3
:1054100088608093F0000E94A525FF91EF91BF91D5
:10542000AF919F918F917F916F915F914F913F913C
:105430002F910F900FBE0F901F9018951F920F92F3
:105440000FB60F9211242F933F934F935F936F9357
:105450007F938F939F93AF93BF93CF93DF93EF93FC
:10546000FF93C091E900CF708091EC00D82FD170EC
:1054700080FDD0E81092E9008091F000877F809352
:10548000F00078940E94622A1092E9008091F00066
:1054900088608093F000CD2BCF70C093E900FF911E
:1054A000EF91DF91CF91BF91AF919F918F917F91BC
:1054B0006F915F914F913F912F910F900FBE0F9081
:1054C0001F9018951F93CF93DF93CDB7DEB7AA97A0
:1054D0000FB6F894DEBF0FBECDBFEFEEF5E08091C2
:1054E000F100819325E0E73FF207C9F70E94CD253F
:1054F0008091E80083FF2EC18091EF059091F00527
:10550000492F50E04A30510508F024C1FA01EC5807
:10551000FF4F0C94282C803821F0823809F01AC1F2
:1055200008C08091EB059091EC05992389F0826089
:105530000FC08091F3058F70873008F00BC1809306
:10554000E9008091EB0085FB882780F91092E90043
:105550009091E800977F9093E8008093F10010927B
:10556000F100D1C0282F2D7F09F0F4C0882319F055
:10557000823061F0EFC08091F105813009F0EAC01E
:10558000933009F080E08093EC052EC08091F10506
:1055900081112AC08091F3058F702FEF280F2630DC
:1055A00008F0D8C08093E9002091EB0020FF1CC0D8
:1055B000933021F48091EB00806214C09091EB0055
:1055C00090619093EB0021E030E0A90102C0440F0C
:1055D000551F8A95E2F74093EA001092EA00809105
:1055E000EB0088608093EB001092E9008091E80066
:1055F000877F8093E8000E947F28ACC08111AAC0F9
:105600001091F1051F778091E3008078812B8093C2
:10561000E3008091E800877F8093E8000E947F2864
:105620008091E80080FFFCCF8091E3008068809348
:10563000E300111102C082E001C083E08093EE0517
:1056400089C08058823008F085C08091F105909122
:10565000F2058C3D53E0950779F583E08A838AE271
:1056600089834FB7F894DE01139620E03EE051E2C3
:10567000E32FF0E050935700E49120FF03C0E29540
:10568000EF703F5FEF708E2F90E0EA3010F0C7961A
:1056900001C0C0968D939D932F5F243149F74FBF72
:1056A0008091E800877F8093E8006AE270E0CE0195
:1056B00001960E948B2716C06091F3057091F40546
:1056C000AE014F5F5F4F0E94CF26BC01892B09F4CA
:1056D00041C09091E800977F9093E80089819A817A
:1056E0000E94E9278091E8008B778093E80032C020
:1056F000803881F58091E800877F8093E800809171
:10570000EA058093F1008091E8008E7772CF8111D5
:1057100021C08091F1059091F20599270297D4F468
:105720008091E800877F8093E8008091F105809365
:10573000EA050E947F288091EA05811106C08091C8
:10574000E30087FD02C081E001C084E08093EE05A4
:105750000E94B9258091E80083FF0AC08091E8008B
:10576000877F8093E8008091EB0080628093EB005C
:10577000AA960FB6F894DEBF0FBECDBFDF91CF91D2
:105780001F9108950895CF938091EE058823A1F08D
:10579000C091E900CF709091EC00892F817090FD4D
:1057A00080E8C82B1092E9008091E80083FD0E94F8
:1057B000622ACF70C093E900CF910895AA1BBB1B4A
:1057C00051E107C0AA1FBB1FA617B70710F0A61B01
:1057D000B70B881F991F5A95A9F780959095BC0122
:1057E000CD01089597FB072E16F4009407D077FD9E
:1057F00009D00E94DE2B07FC05D03EF490958195E0
:105800009F4F0895709561957F4F0895A1E21A2EDC
:10581000AA1BBB1BFD010DC0AA1FBB1FEE1FFF1F54
:10582000A217B307E407F50720F0A21BB30BE40BA4
:10583000F50B661F771F881F991F1A9469F76095EB
:105840007095809590959B01AC01BD01CF010895A5
:10585000EE0FFF1F0590F491E02D09948F929F9217
:10586000AF92BF92CF92DF92EF92FF92CF93DF93EE
:10587000EC01688179818A819B81611571058105BF
:10588000910521F464E279ED8BE597E02DE133EFAA
:1058900041E050E00E94F22C49015A019B01AC0109
:1058A000A7EAB1E40E94112D6B017C01ACEEB4EFCC
:1058B000A50194010E941F2DDC01CB018C0D9D1DC3
:1058C000AE1DBF1DB7FF03C00197A109B048888373
:1058D0009983AA83BB839F77DF91CF91FF90EF904D
:1058E000DF90CF90BF90AF909F908F9008950E94CF
:1058F0002E2C089580E091E00E942E2C0895A0E0C7
:10590000B0E08093000190930101A0930201B09355
:1059100003010895FB01DC0102C005900D92415086
:105920005040D8F70895FB01DC0104C08D9101902F
:10593000801921F441505040C8F7881B990B0895F5
:10594000DC01CB01FC01F999FECF06C0F2BDE1BD3F
:10595000F89A319600B40D9241505040B8F708952E
:10596000F999FECF92BD81BDF89A992780B5089527
:10597000A8E1B0E042E050E00C94A22CDC01A40FBE
:10598000B51F4150504048F0CB01840F951F2E9118
:105990000E94CF2C41505040D0F70895262FF999FE
:1059A000FECF92BD81BDF89A019700B4021639F07E
:1059B0001FBA20BD0FB6F894FA9AF99A0FBE08954F
:1059C0000396272F0E94CF2C0E94CE2C252F0E94B9
:1059D000CF2C242F0C94CF2C0196272F0E94CF2C54
:1059E0000C94CE2C052E97FB1EF400940E94092DDA
:1059F00057FD07D00E94062C07FC03D04EF40C94F0
:105A0000092D50954095309521953F4F4F4F5F4F51
:105A1000089590958095709561957F4F8F4F9F4F1A
:105A200008950E94242DA59F900DB49F900DA49FD2
:105A3000800D911D11240895B7FF0C94112D0E9423
:105A4000112D821B930B0895A29FB001B39FC0013B
:105A5000A39F700D811D1124911DB29F700D811D9A
:0A5A60001124911D0895F894FFCF62
:105A6A000100000000FF0102030405060708090AF5
:105A7A000B0C0E0F101112131415161718191A1BE6
:105A8A001C1D1E1F202122232425262728292A2BD4
:105A9A002C2D2E2F30313233343536373847393AB8
:105AAA003BFF3C3D3E3F40414243444550460D4842
:105ABA00494AFFFFFF4BFFFFFF4C4D4E4F5100007D
:105ACA001E002D003C004B005A0069007800870038
